:020000040800F2
:1000000037110020130101803715024013058501C7
:1000100083250500B743000093834303B3E57500D0
:100020002320B50037150140130505408325050041
:10003000B70301F09383F3FFB3F57500B703B3087B
:1000400093830300B3E575002320B50037450140D5
:1000500013058580832505009303600DB3E57500C6
:100060002320B500374501401305C58083250500D1
:10007000B72300009383C300B3E575002320B500C8
:10008000EF0080081305C01903040500630804008D
:10009000EF004001130515006FF01FFFEF00400D4A
:1000A0006FF05FFE130101FF232011002322710076
:1000B0002324A1002326B100374501401305058004
:1000C0008325050093F50508E38E05FC93030400E2
:1000D0003745014013054580230075003745014031
:1000E000130505808325050093F50504E38805FEC7
:1000F0008325C10003258100832341008320010063
:100100001301010167800000130101FF232011008A
:10011000232271002324A1002326B10037150140BA
:100120001305054183250500B703100093830300E1
:10013000B3E575002320B500EF00800337150140BB
:10014000130505418325050093030001B3E5750000
:100150002320B500EF00C0018325C10003258100E5
:100160008323410083200100130101016780000007
:10017000130181FF232011002322610037831E0019
:10018000130303481303F3FFE31E03FE032341009D
:1001900083200100130181006780000053414A451C
:1001A00045562053414E4B4152414E204348333235
:0C01B0005630303320554152540D0A00E7
:00000001FF
